{
  "_format": "hh-sol-artifact-1",
  "contractName": "CharityFund",
  "sourceName": "contracts/CharityFund.sol",
  "abi": [
    {
      "inputs": [],
      "stateMutability": "nonpayable",
      "type": "constructor"
    },
    {
      "anonymous": false,
      "inputs": [
        {
          "indexed": true,
          "internalType": "address",
          "name": "donor",
          "type": "address"
        },
        {
          "indexed": false,
          "internalType": "uint256",
          "name": "amount",
          "type": "uint256"
        }
      ],
      "name": "FundDeposited",
      "type": "event"
    },
    {
      "anonymous": false,
      "inputs": [
        {
          "indexed": true,
          "internalType": "address",
          "name": "recipient",
          "type": "address"
        },
        {
          "indexed": false,
          "internalType": "uint256",
          "name": "amount",
          "type": "uint256"
        }
      ],
      "name": "FundsTransferred",
      "type": "event"
    },
    {
      "inputs": [],
      "name": "deposit",
      "outputs": [],
      "stateMutability": "payable",
      "type": "function"
    },
    {
      "inputs": [],
      "name": "getContractBalance",
      "outputs": [
        {
          "internalType": "uint256",
          "name": "",
          "type": "uint256"
        }
      ],
      "stateMutability": "view",
      "type": "function"
    },
    {
      "inputs": [],
      "name": "owner",
      "outputs": [
        {
          "internalType": "address",
          "name": "",
          "type": "address"
        }
      ],
      "stateMutability": "view",
      "type": "function"
    },
    {
      "inputs": [],
      "name": "threshold",
      "outputs": [
        {
          "internalType": "uint256",
          "name": "",
          "type": "uint256"
        }
      ],
      "stateMutability": "view",
      "type": "function"
    },
    {
      "inputs": [],
      "name": "totalAmount",
      "outputs": [
        {
          "internalType": "uint256",
          "name": "",
          "type": "uint256"
        }
      ],
      "stateMutability": "view",
      "type": "function"
    }
  ],
  "bytecode": "0x608060405266b1a2bc2ec5000060015534801561001b57600080fd5b50336000806101000a81548173ffffffffffffffffffffffffffffffffffffffff021916908373ffffffffffffffffffffffffffffffffffffffff1602179055506105c78061006b6000396000f3fe60806040526004361061004a5760003560e01c80631a39d8ef1461004f57806342cde4e81461007a5780636f9fb98a146100a55780638da5cb5b146100d0578063d0e30db0146100fb575b600080fd5b34801561005b57600080fd5b50610064610105565b6040516100719190610362565b60405180910390f35b34801561008657600080fd5b5061008f61010b565b60405161009c9190610362565b60405180910390f35b3480156100b157600080fd5b506100ba610111565b6040516100c79190610362565b60405180910390f35b3480156100dc57600080fd5b506100e5610119565b6040516100f291906103be565b60405180910390f35b61010361013d565b005b60025481565b60015481565b600047905090565b60008054906101000a900473ffffffffffffffffffffffffffffffffffffffff1681565b60003411610180576040517f08c379a00000000000000000000000000000000000000000000000000000000081526004016101779061045c565b60405180910390fd5b346002600082825461019291906104ab565b925050819055503373ffffffffffffffffffffffffffffffffffffffff167f0b82cbb3af68ef5b24abae8cd0df3ef2bec5d21454d813002af3ed648f60c884346040516101df9190610362565b60405180910390a2600154600254106101fb576101fa6101fd565b5b565b6000479050600060028190555060008060009054906101000a900473ffffffffffffffffffffffffffffffffffffffff1673ffffffffffffffffffffffffffffffffffffffff168260405161025190610510565b60006040518083038185875af1925050503d806000811461028e576040519150601f19603f3d011682016040523d82523d6000602084013e610293565b606091505b50509050806102d7576040517f08c379a00000000000000000000000000000000000000000000000000000000081526004016102ce90610571565b60405180910390fd5b60008054906101000a900473ffffffffffffffffffffffffffffffffffffffff1673ffffffffffffffffffffffffffffffffffffffff167f8c9a4f13b67cb64d7c6aa1ae0c9bf07694af521a28b93e7060020810ab4bc59f8360405161033d9190610362565b60405180910390a25050565b6000819050919050565b61035c81610349565b82525050565b60006020820190506103776000830184610353565b92915050565b600073ffffffffffffffffffffffffffffffffffffffff82169050919050565b60006103a88261037d565b9050919050565b6103b88161039d565b82525050565b60006020820190506103d360008301846103af565b92915050565b600082825260208201905092915050565b7f446f6e6174696f6e20616d6f756e74206d75737420626520677265617465722060008201527f7468616e20300000000000000000000000000000000000000000000000000000602082015250565b60006104466026836103d9565b9150610451826103ea565b604082019050919050565b6000602082019050818103600083015261047581610439565b9050919050565b7f4e487b7100000000000000000000000000000000000000000000000000000000600052601160045260246000fd5b60006104b682610349565b91506104c183610349565b92508282019050808211156104d9576104d861047c565b5b92915050565b600081905092915050565b50565b60006104fa6000836104df565b9150610505826104ea565b600082019050919050565b600061051b826104ed565b9150819050919050565b7f5472616e73666572206661696c65640000000000000000000000000000000000600082015250565b600061055b600f836103d9565b915061056682610525565b602082019050919050565b6000602082019050818103600083015261058a8161054e565b905091905056fea2646970667358221220024613ec24ba03c2fa01b0c33d832064436536090f8cc5cfdd2ce24fcc08505064736f6c63430008140033",
  "linkReferences": {},
  "deployedLinkReferences": {}
}